:100000000C9479090C9495090C9495090C94950914
:100010000C9495090C9495090C9495090C949509E8
:100020000C9495090C9495090C94920F0C94EC0F78
:100030000C9495090C9495090C9495090C949509C8
:100040000C9495090C9495090C9495090C949509B8
:100050000C9495090C9495090C9495090C949509A8
:100060000C9495090C9495090C9495090C94950998
:100070000C9495090C9495090C9495090C94950988
:100080000C9495090C9495090C9495090C94950978
:100090000C9495090C9495090C9495090C94950968
:1000A0000C9495090C9495090C9495090B15181549
:1000B00026152B1530153515441551155715621594
:1000C00070157E152016841591159E152016AB15FA
:1000D000B2152016C615CB15D615DC15EE15201653
:1000E000CA14CE14D514D914E514E914F514F9146E
:1000F000FD1401151C161C161C161C161C162016A9
:10010000201620162016201620160316201620165C
:1001100020162016FE152016201620162016201652
:10012000201620162016201620162016201620161F
:100130002016201620162016201620161C16201613
:1001400020162016201620162016201620162016FF
:1001500020162016201620162016201620162016EF
:1001600020162016201620162016201620162016DF
:1001700020162016201620162016201620162016CF
:1001800020162016121620160D160000C60EC60EDA
:10019000C60EC60EC60EC60E0000C60EC60EC60E93
:1001A000C60EC60E0000C60EC60EC60EC60EC60E83
:1001B0000000000000000000C60EC60EC60EC60EEF
:1001C000C60EC60EC60EC60EC60EC60EC60EC60E8F
:1001D000C60EC60EC60EC60EC60EC60EC60E000053
:1001E000C60EC60EC60EC60EC60E00000000C60E17
:1001F000C60EC60EC60EC60EC60EC60EC60EC60E5F
:10020000C60EC60EC60EC60EC60EC60EC60EC60E4E
:10021000C60EC60EC60EC60EC60EC60EC60EC60E3E
:10022000C60EC60EC60EC60EC60EC60EC60EC60E2E
:10023000C60E0000DD0EDD0EDD0E00000000000029
:10024000DD0E00000000DD0EDD0EDD0E0000DD0E17
:10025000DD0E00000000DD0E0000000000000000C8
:10026000DD0E00000000DD0EDD0EDD0E00000000E2
:10027000000000000000DD0EDD0E0000C60EC60E00
:10028000C60EC60EDD0E00000000000000000000DB
:10029000000000000000C60EC60EC60EC60EC60E3A
:1002A0000000DD0E00000000000000000000DD0E78
:1002B0000000C60EC60EC60EC60EC60E0000C60E46
:1002C000C60EC60EC60EC60EC60E00000000C60E36
:1002D000C60EC60EC60EC60EC60E000000000000FA
:1002E000000000000000000000000000000000000E
:1002F00000000000000000000000000000000000FE
:1003000000000000000000000000000000000000ED
:1003100000000000000000000000000000000000DD
:10081000000000000000000000000000C60EC60E30
:10082000C60EC60EC60EC60E090FC60EC60EC60EE4
:10083000C60EC60E0000C60EC60EC60EC60EC60EEC
:100840000000000000000000C60EC60EC60EC60E58
:10085000C60EC60EC60EC60EC60EC60EC60EC60EF8
:10086000C60EC60EC60EC60EC60EC60EC60EF30EBB
:10087000C60EC60EC60EC60EC60E00000000C60E80
:10088000C60EC60EC60EC60EC60EC60EC60EC60EC8
:10089000C60EC60EC60EC60EC60EC60EC60EC60EB8
:1008A000C60EC60EC60EC60EC60EC60EC60EC60EA8
:1008B000C60EC60EC60EC60EC60EC60EC60EC60E98
:1008C000C60E0000DD0EDD0EDD0E00000000000093
:1008D000DD0E00000000DD0EDD0EDD0E0000DD0E81
:1008E000DD0E00000000DD0E000000000000000032
:1008F000DD0E00000000DD0EDD0EDD0E000000004C
:10090000000000000000DD0EDD0E0000C60EC60E69
:10091000C60EC60EDD0EF50E000000000000000041
:10092000000000000000C60EC60EC60EC60EC60EA3
:100930000000DD0E00000000000000000000DD0EE1
:100940000000C60EC60EC60EC60EC60E0000C60EAF
:10095000C60EC60EC60EC60EC60EB60DB60DC60E19
:10096000C60EC60EC60EC60EC60E00000000000063
:100970000000000000000000000000000000000077
:100980000000000000000000000000000000000067
:100990000000000000000000000000000000000057
:1009A0000000000000000000000000000000000047
:100EA0000000000000000000000000E04C2A6C6E12
:100EB0006D006F6B2C28E400E0E2352EE3000000AB
:100EC00000E72F30E6E4E11D1B06190572701110D2
:100ED000363738E501041607090A00000B0D0E0F1E
:100EE00033342B141A081517716A1C180C1213319D
:100EF000291E1F202122737323242526272D00005D
:100F000000000000000000000000000000000000E1
:100F100000000000000000000000000000000000D1
:100F2000000000595A5B280001000000000000008A
:100F3000555C5D5E57000000000000000000545F3B
:100F4000606156003A3B3C3D3E3F00004041424319
:100F50004445000000000000000000000000000008
:100F60000000000000000000000000000000000081
:100F70000000000000000000000000000000000071
:100F80000000000000000000000000000000000061
:100F90000000000000000000000000000000000051
:1011F000000000010000291212000200003B122230
:10120000002200005D123F002100004D1209000382
:1012100000009C120401030904A01218020309042F
:10122000BA1236000001C1060012010002000000DF
:1012300020501D2860000101020001090222000166
:101240000100C0320904000001030101000921115D
:10125000010001223F000705830308000105010981
:1012600006A10175019508050719E029E715002574
:10127000018102950175088103950575010508191D
:1012800001290591029501750391039506750815CD
:101290000025680507190029688100C004030904B6
:1012A000180375006E00730070006500630069002C
:1012B00066006900650064000000360345007200A6
:1012C00067006F0044006F00780020006500720026
:1012D00067006F006E006F006D0069006300200002
:1012E0006B006500790062006F00610072006400AD
:1012F000000011241FBECFEFDAE0DEBFCDBF11E04A
:10130000A0E0B1E0E8E3FDE202C005900D92AA3151
:10131000B107D9F712E0AAE1B1E001C01D92A038EF
:10132000B107E1F743D00C949A160C940000209179
:10133000690280916C0290913F02E0913E0222236B
:1013400081F02EE0E29FF001112424E5929FE00D50
:10135000F11D1124E80FF11DEE0FFF1FE65EF74FA0
:101360000FC02EE0E29FF001112424E5929FE00DD2
:10137000F11D1124E80FF11DEE0FFF1FE657FE4F80
:1013800085919491FC01009709F009940895E091EA
:101390001A01E81748F0F0E0E81BF109EE0FFF1F13
:1013A000E05CFD4F8081089580E0089504D18CE0D9
:1013B00090E0909389008093880090938B008093B5
:1013C0008A0090938D0080938C00259A269A279A04
:1013D00057D56DD58823E9F38FE790E09093890086
:1013E000809388002FE732E440E1215030404040B4
:1013F000E1F700C0000090938B0080938A002FE7F4
:1014000032E440E1215030404040E1F700C00000AC
:1014100090938D0080938C002FE732E440E12150BF
:1014200030404040E1F700C00000259826982798FA
:10143000909389008093880090938B0080938A001A
:1014400090938D0080938C0086D73EE0F32E8091A0
:1014500014019091150120911601309117013093DC
:101460001501209314019093170180931601AFD0BA
:101470001092E9013FC010926A0233C0E091160158
:10148000F0911701F19EC0011124800F911DE80F0A
:10149000F91F208120936902E0911401F091150158
:1014A000E80FF91F3081309368022317A9F0EC018F
:1014B000C651DE4F222331F080E069DF80933F0286
:1014C000888303C0888180933F0210933E0200937B
:1014D0006C0210926B022BDF80916A028F5F809307
:1014E0006A0200916A021091E9010E3038F21F5F22
:1014F0001093E9018091E901863008F4BCCF45D70B
:10150000A6CF982FE1E0F1E021E030E0822F419179
:10151000411112C0F901E050FF4F31E03083E091FA
:101520001A01EF5FE0931A01F0E0EE0FFF1FE05C9D
:10153000FD4F9083218308952F5F3F4F2431310564
:1015400029F780E00895CF93DF9320911A0191E06D
:10155000C82FD0E0C050DF4F27C0E92FF0E0EE0FDA
:10156000FF1FE05CFD4F318138131DC00FC0DF014C
:10157000AA0FBB1FAE5BBD4F3C91EE0FFF1FE05C9F
:10158000FD4F308311963C9131839F5FE92FF0E04E
:101590009213EDCFEE0FFF1FE05CFD4F1082118222
:1015A0001882292F21509F5F2917B8F620931A011E
:1015B000DF91CF910895C2D0811105C01AD0882340
:1015C00021F082E0089581E0089580E00895CF93AE
:1015D000DF93EC017CD1811106C0CE0135D0882388
:1015E00021F082E003C081E001C080E0DF91CF9173
:1015F0000895CF9342D380E45FD3C82F811120C0D8
:1016000080E05AD380E858D38FEF56D34DD335D3EB
:1016100080E452D3C82F811113C08CE04DD380E8F1
:101620004BD38FEF49D340D328D380E445D3C82F81
:10163000811106C084E140D38FEF3ED38FEF3CD3BE
:1016400033D38C2FCF910895BF92CF92DF92EF9238
:10165000FF920F931F93CF93DF931F92CDB7DEB707
:101660007C01C7DFB82E882391F020E030E0F7013D
:10167000E20FF31F108211821282138214821582EC
:101680001682225F3F4F2435310589F74BC000E0B9
:1016900010E0CC24C394D12CF0D280E40DD382E1AD
:1016A0000BD3C601002E01C0880F0A94EAF780957B
:1016B00003D3FAD2E2D280E4FFD283E1FDD2DDD2BD
:1016C00081E4FAD2CE01019615D3EED2698170E0A1
:1016D00040E050E025E030E0D701A00FB11FFD0150
:1016E000E40FF51FCB01022E02C0959587950A9451
:1016F000E2F780958170808321503109425F5F4F0E
:101700002F3F8FEF380759F70F5F1F4F0730110535
:1017100009F0C2CFB2D280E4CFD282E1CDD28FEF36
:10172000CBD2C2D28B2D0F90DF91CF911F910F9111
:10173000FF90EF90DF90CF90BF900895E1E6F0E04A
:1017400080E88083108256985E9824982C9825987B
:101750002698279889EA8093800089E08093810009
:1017600083D23F9885E08A95F1F70000579885E08D
:101770008A95F1F70000549885E08A95F1F700000A
:10178000559885E08A95F1F700006E9885E08A9576
:10179000F1F70000479A85E08A95F1F700005F9A1B
:1017A00085E08A95F1F700005C9A85E08A95F1F76B
:1017B00000005D9A85E08A95F1F70000769A85E051
:1017C0008A95F1F70000879885E08A95F1F7000087
:1017D000869885E08A95F1F70000859885E08A95DE
:1017E000F1F70000849885E08A95F1F70000819870
:1017F00085E08A95F1F70000809885E08A95F1F7F9
:101800000000209885E08A95F1F70000219885E096
:101810008A95F1F70000229885E08A95F1F700009B
:10182000239885E08A95F1F70000529885E08A9523
:10183000F1F70000539885E08A95F1F700003E9893
:1018400085E08A95F1F700008F9A85E08A95F1F797
:1018500000008E9A85E08A95F1F700008D9A85E068
:101860008A95F1F700008C9A85E08A95F1F70000DF
:10187000899A85E08A95F1F70000889A85E08A9533
:10188000F1F70000289885E08A95F1F70000299883
:1018900085E08A95F1F700002A9885E08A95F1F7AE
:1018A00000002B9885E08A95F1F700005A9885E0B2
:1018B0008A95F1F700005B9885E08A95F1F70000C2
:1018C000469885E08A95F1F7000080E00895CF936F
:1018D000DF93FC01209A85E08A95F1F700008FB133
:1018E0008095881F8827881F87839FB181E096FB9A
:1018F000992790F99827958B9FB195FB992790F997
:10190000982793A39FB192959170982791AB9FB11F
:1019100096959170982797AF9FB1DF01AA5BBF4F53
:101920009170982717969C931797209895E09A9511
:10193000F1F70000219A95E09A95F1F700009FB128
:101940009095991F9927991F90879FB196FB99278A
:1019500090F99827968B9FB195FB992790F9982736
:1019600094A39FB192959170982792AB9FB1EF018C
:10197000C05CDF4F96959170982798839FB19170C6
:10198000982718969C931897219895E09A95F1F7C7
:101990000000229A95E09A95F1F700009FB190958A
:1019A000991F9927991F91879FB196FB992790F9C5
:1019B0009827978B9FB195FB992790F9982795A326
:1019C0009FB192959170982793AB9FB1EF01CF5B38
:1019D000DF4F96959170982798839FB191709827C3
:1019E00019969C931997229895E09A95F1F7000023
:1019F000239A95E09A95F1F700009FB19095991F71
:101A00009927991F92879FB196FB992790F998275C
:101A1000908F9FB195FB992790F9982796A39FB136
:101A200092959170982794AB9FB1EF01CE5BDF4FF9
:101A300096959170982798839FB1917098271A96E0
:101A40009C931A97239895E09A95F1F70000529A83
:101A500095E09A95F1F700009FB19095991F99270D
:101A6000991F93879FB196FB992790F99827918F9B
:101A70009FB195FB992790F9982797A39FB19295CD
:101A80009170982795AB9FB1EF01CD5BDF4F969595
:101A90009170982798839FB1917098271B969C937B
:101AA0001B97529895E09A95F1F70000539A95E0AC
:101AB0009A95F1F700009FB19095991F9927991F6A
:101AC00094879FB196FB992790F99827928F9FB1A1
:101AD00095FB992790F9982790A79FB192959170BF
:101AE000982796AB9FB1EF01CC5BDF4F9695917035
:101AF000982798839FB1917098271C969C931C9768
:101B0000539895E09A95F1F700003E9A95E09A95E2
:101B1000F1F700009FB19095991F9927991F95871C
:101B20009FB196FB992790F99827938F9FB195FBCA
:101B3000992790F9982791A79FB19295917098272E
:101B400097AB9FB1EB5BFF4F969591709827908371
:101B50009FB1917098271D969C933E9885E08A9539
:101B6000F1F7000080E0DF91CF9108953ED13FD1A1
:101B700040D141D142D143D144D145D146D147C1D1
:101B8000662309F470C0633E59F138F4613EC1F038
:101B9000F8F4603E09F04CC009C0653E89F140F19F
:101BA000663EB1F1673E09F043C03AC09091210111
:101BB000882311F0916001C09E7F909321010895C8
:101BC00090912101882311F09260F7CF9D7FF5CF8E
:101BD00090912101882311F09460EFCF9B7FEDCF8E
:101BE00090912101882311F09860E7CF977FE5CF8E
:101BF00090912101882311F09061DFCF9F7EDDCF8E
:101C000090912101882311F09062D7CF9F7DD5CF8D
:101C100090912101882311F09064CFCF9F7BCDCF8D
:101C200090912101882311F09068C7CF9F77C5CF8D
:101C3000EBE1F1E020E030E09081882339F0911170
:101C40000CC0F901E55EFE4F60830895961305C050
:101C5000F901E55EFE4F108208952F5F3F4F3196E8
:101C60002630310549F70895E9EBF0E080818C7F5B
:101C7000808388E48093B800089584EA8093BC0050
:101C80008091BC0087FFFCCF8091B900887F8830AD
:101C900049F08091B900887F803121F08091B900AE
:101CA000887F089580E0089584E98093BC00809146
:101CB000BC0084FDFCCF08958093BB0084E8809332
:101CC000BC008091BC0087FFFCCF8091B900887F69
:101CD000883171F08091B900887F883249F0809115
:101CE000B900887F803421F08091B900887F089501
:101CF00080E0089524EC2093BC002091BC0027FFD5
:101D0000FCCF2091BB00FC0120838091B900887F2B
:101D1000803521F08091B900887F089580E0089592
:101D2000CF93DF93C82FD0E0CC0FDD1FC653DE4F1B
:101D3000888109DC19821882DF91CF9108951F9361
:101D4000CF93DF9390916C0220913F02E0913E028D
:101D50003EE0E39FF001112434E5239FE00DF11DE7
:101D60001124E90FF11DE655F14F1491C82FD0E071
:101D7000CC0FDD1FC653DE4F8881E5DB812FC1DB31
:101D800088831982DF91CF911F91089580916C0211
:101D900090913F02E0913E022EE0E29FF00111247B
:101DA00024E5929FE00DF11D1124E80FF11DE65589
:101DB000F14F649180916902E3CE80916B028F5F55
:101DC00080936B02E4DA80933F0290916C02E09181
:101DD0003E022EE0E29FF0011124E90FF11DE651D1
:101DE000FE4F8083A4CA81E0AACF81E099CF82E030
:101DF00097CF83E095CF84E093CF85E091CF86E0C5
:101E00008FCF87E08DCF88E08BCF89E089CF8AE0C4
:101E100087CFF89481E08093E00080E28093D8003F
:101E2000E9ECF0E010828FE19EE40197F1F700C049
:101E300000001DBA109268001CBC10BE1FBA1092A0
:101E40007A0010926E0010926F0010927100109242
:101E500072001082ECEBF0E0108214B817B81AB8D8
:101E60001DB810BA108215B818B81BB81EB811BA30
:101E70000C94003F08958091E80080FFFCCF089506
:101E800081E08093D70080EA8093D80082E189BD09
:101E900009B400FEFDCF80E98093D8001092E000E5
:101EA0001092E6018CE08093E2007894089580918E
:101EB000E60108958091E601811102C08FEF089537
:101EC0008FB7F89493E09093E9009091E4009E5CC2
:101ED00023E03091E80035FD0EC08FBF8091E60110
:101EE000882361F38091E400891741F38FB7F89458
:101EF0002093E900EECF9091E5019093F1001092CC
:101F0000F100EFEDF1E091919093F10091E0E53E69
:101F1000F907C9F79AE39093E8001092E7018FBFA1
:101F200080E008951F920F920FB60F9211248F93A5
:101F30009F93EF93FF938091E1001092E10083FF64
:101F40000FC01092E90091E09093EB001092EC002A
:101F500092E29093ED0098E09093F0001092E601E9
:101F600082FF31C08091E601882369F190911801C8
:101F7000992349F18091E8018F5F8093E801837094
:101F800011F583E08093E9008091E80085FF1BC094
:101F90008091E7018F5F8093E701891314C010924D
:101FA000E7018091E5018093F1001092F100EFEDDF
:101FB000F1E081918093F10081E0E53EF807C9F7F7
:101FC0008AE38093E800FF91EF919F918F910F90AA
:101FD0000FBE0F901F9018951F920F920FB60F9281
:101FE0001124EF92FF920F931F932F933F934F93E0
:101FF0005F936F937F938F939F93AF93BF93EF9371
:10200000FF93CF93DF931F92CDB7DEB71092E90015
:102010008091E80083FF2AC19091F1008091F10046
:102020002091F1003091F100F32EE12CE22A209171
:10203000F1003091F100132F00E0022B6091F100CC
:102040007091F10022EF2093E800863009F04DC036
:1020500047E082EF91E1FC01259134912E153F0577
:1020600009F007C0FC013296259134912017310701
:1020700011F0079615C0FC013496459154919A01D0
:10208000FC0136968491572F40E0462B4F3F510577
:1020900019F010F04FEF50E0481728F4842F03C0D8
:1020A0004150C9F6E3C07EEF9091E800492F45709A
:1020B000D9F392FDDEC0982F813208F090E2A90199
:1020C000692F07C0FA014F5F5F4FE491E093F10081
:1020D00061506111F7CF290F311D891B7093E80002
:1020E0008111E2CF903201F3C4C0853049F48EEF04
:1020F0008093E800C0DE6894E7F8E092E300B9C09E
:10210000893041F591116DC0E092E6018EEF809328
:10211000E80041E083E292E101C0C9014093E90097
:102120009C012F5F3F4FFC0154915093EB005523CE
:1021300061F0F90124912093EC009C012D5F3F4F49
:10214000FC01329684918093ED004F5F453029F772
:102150008EE142C0883039F4903809F042C08BDEFD
:102160008091E60161C0811115C0998384DE998157
:10217000923851F40093E9008091EB0085FB8827A9
:1021800080F91092E90001C080E08093F100109284
:10219000F10063C0813011F0833019F5923009F5F8
:1021A000EF2809F063C00F771127902F91509430DA
:1021B00008F05CC09EEF9093E8000093E900833044
:1021C00009F454C089E18093EB0081E090E0002E97
:1021D00001C0880F0A94EAF78093EA001092EA009F
:1021E00048C0012B09F042C0913A09F5813089F4C9
:1021F00042DE8091E5018093F1001092F100EFED55
:10220000F1E081918093F10031E0E53EF307C9F7F9
:1022100024C0823021F42FDE8091180105C0833064
:1022200029F529DE809119018093F10016C09132C1
:10223000E9F4893061F48091E80082FFFCCF80915D
:10224000F1008093DE018BEF8093E80006C08A30B6
:1022500041F4F09218011092E7018EEF8093E800AC
:1022600008C08B3019F4E0921901F7CF81E2809316
:10227000EB000F90DF91CF91FF91EF91BF91AF9164
:102280009F918F917F916F915F914F913F912F918E
:102290001F910F91FF90EF900F900FBE0F901F9026
:1022A000189580937502089581E0809370020895D7
:1022B00081E080937302089580917402882381F0F5
:1022C000EFEDF1E0ABE1B1E011921D9281E0E53E6E
:1022D000F807D1F71092E50110922101EBDD1DC046
:1022E00080912101EBE1F1E0AFEDB1E091919D939F
:1022F00091E0E132F907D1F78093E501DBDD10923F
:10230000DF011092E0011092E1011092E2011092BF
:10231000E3011092E4011092E5018FE19EE4019740
:10232000F1F700C000000895809175029091770246
:10233000981759F0882341F08BEF90E09093890033
:1023400080938800259A0895259808951092750223
:1023500061D0CDD46EC0FACF109270021092730289
:1023600090917502913029F018F0963031F404C044
:102370006BC4909370020895C2C40895833721F40A
:10238000E5DF81E0809376020895CF93DF9310928A
:102390006D02809175028093770210927402109200
:1023A0007602CBE1D1E088818823A1F0909176027A
:1023B00091110FC060912101E1DF609121018881BD
:1023C000CBDF80917002811105C080917302811171
:1023D00001C01882219681E0C132D80721F780918F
:1023E0007302811101C068DFDF91CF919DCF90937F
:1023F0007202809371020895CF93C82F52DFCC23CD
:1024000019F0C63029F402C0CF9123C4CF917CC407
:10241000CF91089580E0F0CF909179022AE0929FC9
:10242000800D1124853108F401C084E18093790284
:102430000895109279020895809179020895CF93BA
:10244000DF93CFEDD1E088836093E50133DD8FE149
:102450009EE40197F1F700C0000018821092E50198
:10246000DF91CF910895811102C088E001C08AE018
:10247000809378026091780280E5E1CF811102C0FB
:1024800088E001C08AE080937802609178028FE44E
:10249000D6CF80E0E8CF84E08093780264E088E6DD
:1024A000CECF88E08093780268E086E0C8CF1092B3
:1024B000780260E08AE2C3CF81E08093780261E035
:1024C00088E6BDCF83E08093780263E088E6B7CFEB
:1024D00086E08093780266E088E6B1CF811103C080
:1024E0001092780203C082E08093780260917802B3
:1024F00082E5A5CF811103C01092780203C082E06B
:10250000809378026091780281E599CF811103C0B0
:102510001092780203C082E0809378026091780282
:1025200080E58DCF811103C01092780203C082E054
:1025300080937802609178028FE481CF811103C08B
:102540001092780203C082E0809378026091780252
:1025500064606093780280E572CF811103C01092AD
:10256000780203C082E08093780260917802646010
:10257000609378028FE463CF8CE0809378026CE004
:1025800088E65DCF87E08093780267E088E657CFE2
:1025900060E08CE254CF811103C01092780203C036
:1025A00082E080937802609178028EE448CF8111B6
:1025B00003C01092780203C082E080937802609199
:1025C00078028BE43CCF88E08093780268E084E076
:1025D00036CF60917A0280917B0231CF8CE080937C
:1025E00078026CE089E02BCF88E08093780268E085
:1025F0008CE225CF88E08093780268E086E11FCFE7
:1026000088E08093780268E084E119CF88E08093C5
:10261000780268E08FE413CF88E08093780268E066
:1026200080E50DCF88E08093780268E089E007CFED
:1026300088E08093780268E08DE101CF1092780203
:1026400060E08CE4FCCE82E08093780262E08FE46C
:10265000F6CECF93C8E0C093780268E080E5EFDE65
:102660001092780260E088E2EADE1092780260E080
:1026700082E5E5DEC093780268E089E1CF91DFCEA4
:10268000CF93C8E0C093780268E08FE4D8DE109260
:10269000780260E088E2D3DEC093780268E080E5EB
:1026A000CEDEC093780268E089E1CF91C8CE88E0A1
:1026B0008093780268E08FE4C2DE1092780260E0D6
:1026C00088E2BDCE8AE0809378026AE0B8CE88E0E6
:1026D0008093780268E08AE0B2CE88E08093780246
:1026E00068E08FE4ACCE1092780260E08FE4A7CE71
:1026F000D0CECFDE1092780260E088E2A0DE1092A9
:10270000780260E082E59BCEC4CECBCE80E025CFC0
:1027100081E023DFC6DE80E0F9CEBDDE10927802D4
:1027200060E08FE48CCEB7DE1092780260E08AE23F
:1027300086CEC2DEB0DEB5DEC5CECF93C82FBCDEFE
:1027400080E091DE81E080937C020AC060E080E05E
:1027500076DE81E0CFDE90917C029F5F90937C02D9
:1027600080917C028C1790F381E088DE9ADECF9115
:10277000A9CE08CF01CF27DF80E0C8CE24DF80E0DC
:10278000D1CE80E014CF81E0E8DE91CE81E0E5DEBD
:102790008ECE81DE86DE8BCECF93C82F80E063DEC7
:1027A00081E080937C020AC060E080E048DE81E046
:1027B000A1DE90917C029F5F90937C0280917C02CD
:1027C0008C1790F381E05ADE6CDECF9170CECF9300
:1027D000C82F72DE80E047DE81E080937C020AC071
:1027E00060E080E02CDE81E085DE90917C029F5FDE
:1027F00090937C0280917C028C1790F381E03EDE06
:1028000050DE60DEC5DE80E02EDE81E080937C025B
:102810000AC060E080E013DE81E06CDE90917C0213
:102820009F5F90937C0280917C028C1790F381E0F3
:1028300025DE37DE3CDE60E080E001DECF9137CE82
:1028400080E0A9CE80E07ACE843119F08A3159F443
:1028500005C0611108C086E494E104C0611103C0A1
:102860008EE394E1C4CDD6CDCF93DF93EC01E4DDCC
:10287000FE010995DEDDDF91CF91CCCD883229F4C0
:10288000611103C08AEF92E1EFCFC4CD883229F401
:10289000611103C080E093E1E7CFBCCD8A3149F0FC
:1028A0008C3161F0843079F461110DC084E694E1DB
:1028B0009ECD611108C088E893E104C0611103C096
:1028C0008DE993E1D1CFA6CD882311F08A3119F497
:1028D00089E993E1C9CF9ECD882311F08A3019F49C
:1028E0008BEB93E1C1CF96CD873049F08A3161F00F
:1028F000843079F461110DC08AE894E178CD6111DA
:1029000008C087EE93E104C0611103C083EC93E13A
:10291000ABCF80CD882311F08A3119F483E993E19C
:10292000A3CF78CD863049F08A3161F0843089F4C4
:1029300061110FC08AEA94E15ACD61110AC08CEC92
:1029400093E104C0611105C086EC93E18DDF81E065
:1029500053CD60CD8A3139F4611105C089EC93E122
:1029600083DF81E049CD56CD80937B0260937A026C
:1029700089EE92E179CFCF93DF931F92CDB7DEB787
:1029800090E0FC013497EF36F10508F059C1EA5A9E
:10299000FF4FCAC1611154C181E003C0611150C130
:1029A00082E00F90DF91CF9137CD611149C183E073
:1029B000F8CF623029F0603219F0662321F040C16F
:1029C00086E093E114C184E0ECCF611139C185E068
:1029D000E8CF623029F0603219F0662321F030C16F
:1029E00088E793E104C186E0DCCF611129C187E06B
:1029F000D8CF611125C188E0D4CF611121C189E010
:102A0000D0CF61111DC118DD882311F080E0C9CF3E
:102A10008CE093E1ECC0623029F0603219F066235B
:102A200021F00EC18DE693E1AEC083E793E1ABC028
:102A3000613021F038F0603109F002C139DC81ECFD
:102A400093E1D5C035DC82E294E1D1C06111F8C0D8
:102A500082E994E1DEC06111F3C084E794E1D9C05A
:102A60006111EEC08DE893E1C2C0613021F038F011
:102A7000603109F0E5C01CDC80E294E1B8C082E17D
:102A800093E1F2DE84E0D4C0623029F0603219F0C4
:102A9000662321F0D5C08EEB93E1A9C08CE694E1CA
:102AA000B8C06111CDC004DC60E080E593C0623045
:102AB00031F0603221F0662309F466C0C1C084E8B9
:102AC00093E161C0613021F038F0603109F0B8C0A5
:102AD000EFDB89EB93E18BC0EBDB60E081E57AC053
:102AE000613021F038F0603109F0AAC0E1DB8AEBF7
:102AF00093E17DC0DDDB60E082E56CC06111A0C0C8
:102B0000D7DB60E08FE466C0623029F0603219F0F4
:102B1000662321F095C082E693E169C087E693E1E0
:102B200066C0623029F0603219F0662321F088C057
:102B300089E793E128C087E593E125C0623029F059
:102B4000603219F0662321F07BC089E293E14FC027
:102B500080E493E14CC0611173C083E293E184DEB1
:102B600082E066C0623029F0603219F0662349F0D5
:102B700067C08CEC93E1698377DE81E03DDC69819D
:102B800005C08EE193E170DE81E052C0611158C052
:102B900088E193E12CC0623029F0603219F066239D
:102BA00019F04EC086E044C085E042C0611148C0C3
:102BB0007FDB86E893E11BC0623029F0603219F0B8
:102BC000662329F03DC074DB60E08AE203C070DB5D
:102BD00060E08CE40F90DF91CF91C6CE683029F091
:102BE000603819F0662339F02BC085E893E10F9027
:102BF000DF91CF9139CE8EE494E10BC0611120C0FA
:102C000082E193E113C0623011F06032C9F484E2D2
:102C100094E10F90DF91CF91EACB611111C084EF65
:102C200092E104C061110CC08EEE92E11DDE83E0E2
:102C30000F90DF91CF91E0CB0F90DF91CF9134CB0C
:102C40000F90DF91CF91E6CBE0917102F09172028B
:102C500009948BEB94E19093720280937102089532
:102C60008D3071F038F4863009F437C0873009F0C0
:102C70003DC030C08E3011F18C3109F037C032C008
:102C800080917D0290917E02019790937E028093C5
:102C90007D0281E02FDC80917D0290917E02892B64
:102CA00061F460E080E0CBDB0DDC60E080E0C7DB5E
:102CB00003DC60E080E0C3DB0BCCFACA80917D02CC
:102CC00090917E02019690937E0280937D0281E036
:102CD00005DCE1CFE6DBEBDB06C0E3DBE8DBF2DBC8
:102CE00081E003C0DEDBEEDB80E086CB089510924E
:102CF0007E0210927D0281E080937F020895E09130
:102D00007102F0917202099410927E0210927D027B
:102D1000D3DB60E080E093DBDBDB80E396E1909344
:102D20007202809371020895EE0FFF1F0590F491D7
:082D3000E02D0994F894FFCF97
:102D3800010000000000000000000000000000008A
:0A2D480000000000220176017D0169
:00000001FF
