:100000000C9479090C9495090C9495090C94950914
:100010000C9495090C9495090C9495090C949509E8
:100020000C9495090C9495090C94920F0C94EC0F78
:100030000C9495090C9495090C9495090C949509C8
:100040000C9495090C9495090C9495090C949509B8
:100050000C9495090C9495090C9495090C949509A8
:100060000C9495090C9495090C9495090C94950998
:100070000C9495090C9495090C9495090C94950988
:100080000C9495090C9495090C9495090C94950978
:100090000C9495090C9495090C9495090C94950968
:1000A0000C9495090C9495090C9495092616331611
:1000B000411646164B165016731680168616911664
:1000C0009F16AD165B17B316C016CD165B17E31659
:1000D000ED165B17FC1601170C17121721175B178B
:1000E000E815EC15F015F415001604161016141684
:1000F00018161C165A175A175A175A175A175B17F9
:100100005B175B175B1748175B1741175B175B178C
:100110005B175B1726175B175B175B175B175B1784
:100120005B175B175B175B175B175B175B175B173F
:100130005B175B175B175B175B175B175A175B1730
:100140005B175B175B175B175B175B175B175B171F
:100150005B175B175B175B175B175B175B175B170F
:100160005B175B175B175B175B175B175B175B17FF
:100170005B175B175B175B175B175B175B175B17EF
:100180005B175B1753175B174E170000C60EC60EA2
:10019000C60EC60EC60EC60E0000C60EC60EC60E93
:1001A000C60EC60E0000C60EC60EC60EC60EC60E83
:1001B0000000000000000000C60EC60EC60EC60EEF
:1001C000C60EC60EC60EC60EC60EC60EC60EC60E8F
:1001D000C60EC60EC60EC60EC60EC60EC60E000053
:1001E000C60EC60EC60EC60EC60E00000000C60E17
:1001F000C60EC60EC60EC60EC60EC60EC60EC60E5F
:10020000C60EC60EC60EC60EC60EC60EC60EC60E4E
:10021000C60EC60EC60EC60EC60EC60EC60EC60E3E
:10022000C60EC60EC60EC60EC60EC60EC60EC60E2E
:10023000C60E0000DD0EDD0EDD0E00000000000029
:10024000DD0E00000000DD0EDD0EDD0E0000DD0E17
:10025000DD0E00000000DD0E0000000000000000C8
:10026000DD0E00000000DD0EDD0EDD0E00000000E2
:10027000000000000000DD0EDD0E0000C60EC60E00
:10028000C60EC60EDD0E00000000000000000000DB
:10029000000000000000C60EC60EC60EC60EC60E3A
:1002A0000000DD0E00000000000000000000DD0E78
:1002B0000000C60EC60EC60EC60EC60E0000C60E46
:1002C000C60EC60EC60EC60EC60E00000000C60E36
:1002D000C60EC60EC60EC60EC60E000000000000FA
:1002E000000000000000000000000000000000000E
:1002F00000000000000000000000000000000000FE
:1003000000000000000000000000000000000000ED
:1003100000000000000000000000000000000000DD
:10081000000000000000000000000000C60EC60E30
:10082000C60EC60EC60EC60E090FC60EC60EC60EE4
:10083000C60EC60E0000C60EC60EC60EC60EC60EEC
:100840000000000000000000C60EC60EC60EC60E58
:10085000C60EC60EC60EC60EC60EC60EC60EC60EF8
:10086000C60EC60EC60EC60EC60EC60EC60EF30EBB
:10087000C60EC60EC60EC60EC60E00000000C60E80
:10088000C60EC60EC60EC60EC60EC60EC60EC60EC8
:10089000C60EC60EC60EC60EC60EC60EC60EC60EB8
:1008A000C60EC60EC60EC60EC60EC60EC60EC60EA8
:1008B000C60EC60EC60EC60EC60EC60EC60EC60E98
:1008C000C60E0000DD0EDD0EDD0E00000000000093
:1008D000DD0E00000000DD0EDD0EDD0E0000DD0E81
:1008E000DD0E00000000DD0E000000000000000032
:1008F000DD0E00000000DD0EDD0EDD0E000000004C
:10090000000000000000DD0EDD0E0000C60EC60E69
:10091000C60EC60EDD0EF50E000000000000000041
:10092000000000000000C60EC60EC60EC60EC60EA3
:100930000000DD0E00000000000000000000DD0EE1
:100940000000C60EC60EC60EC60EC60E0000C60EAF
:10095000C60EC60EC60EC60EC60EB60DB60DC60E19
:10096000C60EC60EC60EC60EC60E00000000000063
:100970000000000000000000000000000000000077
:100980000000000000000000000000000000000067
:100990000000000000000000000000000000000057
:1009A0000000000000000000000000000000000047
:100EA0000000000000000000000000E04C2A6C6E12
:100EB0006D006F6B2C28E400E0E2352EE3000000AB
:100EC00000E72F30E6E4E11D1B06190572701110D2
:100ED000363738E501041607090A00000B0D0E0F1E
:100EE00033342B141A081517716A1C180C1213319D
:100EF000291E1F202122737323242526272D00005D
:100F000000000000000000000000000000000000E1
:100F100000000000000000000000000000000000D1
:100F2000000000595A5B280001000000000000008A
:100F3000555C5D5E57000000000000000000545F3B
:100F4000606156003A3B3C3D3E3F00004041424319
:100F50004445000000000000000000000000000008
:100F60000000000000000000000000000000000081
:100F70000000000000000000000000000000000071
:100F80000000000000000000000000000000000061
:100F90000000000000000000000000000000000051
:1011F000000000010000291212000200003B122230
:10120000002200005D123F002100004D1209000382
:1012100000009C120401030904A01218020309042F
:10122000BA1236000001C1060012010002000000DF
:1012300020501D2860000101020001090222000166
:101240000100C0320904000001030101000921115D
:10125000010001223F000705830308000105010981
:1012600006A10175019508050719E029E715002574
:10127000018102950175088103950575010508191D
:1012800001290591029501750391039506750815CD
:101290000025680507190029688100C004030904B6
:1012A000180375006E00730070006500630069002C
:1012B00066006900650064000000360345007200A6
:1012C00067006F0044006F00780020006500720026
:1012D00067006F006E006F006D0069006300200002
:1012E0006B006500790062006F00610072006400AD
:1012F000000011241FBECFEFDAE0DEBFCDBF11E04A
:10130000A0E0B1E0E2E9F0E302C005900D92AA315D
:10131000B107D9F712E0AAE1B1E001C01D92A83AE5
:10132000B107E1F743D00C9447180C9400002091CA
:10133000690280916C0290913F02E0913E0222236B
:1013400081F02EE0E29FF001112424E5929FE00D50
:10135000F11D1124E80FF11DEE0FFF1FE65EF74FA0
:101360000FC02EE0E29FF001112424E5929FE00DD2
:10137000F11D1124E80FF11DEE0FFF1FE657FE4F80
:1013800085919491FC01009709F009940895E091EA
:101390001A01E81748F0F0E0E81BF109EE0FFF1F13
:1013A000E05CFD4F8081089580E0089504D18CE0D9
:1013B00090E0909389008093880090938B008093B5
:1013C0008A0090938D0080938C00259A269A279A04
:1013D00057D56DD58823E9F38FE790E09093890086
:1013E000809388002FE732E440E1215030404040B4
:1013F000E1F700C0000090938B0080938A002FE7F4
:1014000032E440E1215030404040E1F700C00000AC
:1014100090938D0080938C002FE732E440E12150BF
:1014200030404040E1F700C00000259826982798FA
:10143000909389008093880090938B0080938A001A
:1014400090938D0080938C00A4D73EE0F32E809182
:1014500014019091150120911601309117013093DC
:101460001501209314019093170180931601AFD0BA
:101470001092E9013FC010926A0233C0E091160158
:10148000F0911701F19EC0011124800F911DE80F0A
:10149000F91F208120936902E0911401F091150158
:1014A000E80FF91F3081309368022317A9F0EC018F
:1014B000C651DE4F222331F080E069DF80933F0286
:1014C000888303C0888180933F0210933E0200937B
:1014D0006C0210926B022BDF80916A028F5F809307
:1014E0006A0200916A021091E9010E3038F21F5F22
:1014F0001093E9018091E901863008F4BCCF66D7EA
:10150000A6CF982FE1E0F1E021E030E0822F419179
:10151000411112C0F901E050FF4F31E03083E091FA
:101520001A01EF5FE0931A01F0E0EE0FFF1FE05C9D
:10153000FD4F9083218308952F5F3F4F2431310564
:1015400029F780E00895CF93DF9320911A0191E06D
:10155000C82FD0E0C050DF4F27C0E92FF0E0EE0FDA
:10156000FF1FE05CFD4F318138131DC00FC0DF014C
:10157000AA0FBB1FAE5BBD4F3C91EE0FFF1FE05C9F
:10158000FD4F308311963C9131839F5FE92FF0E04E
:101590009213EDCFEE0FFF1FE05CFD4F1082118222
:1015A0001882292F21509F5F2917B8F620931A011E
:1015B000DF91CF910895C2D0811105C01AD0882340
:1015C00021F082E0089581E0089580E00895CF93AE
:1015D000DF93EC017CD1811106C0CE0135D0882388
:1015E00021F082E003C081E001C080E0DF91CF9173
:1015F0000895CF9342D380E45FD3C82F811120C0D8
:1016000080E05AD380E858D38FEF56D34DD335D3EB
:1016100080E452D3C82F811113C08CE04DD380E8F1
:101620004BD38FEF49D340D328D380E445D3C82F81
:10163000811106C084E140D38FEF3ED38FEF3CD3BE
:1016400033D38C2FCF910895BF92CF92DF92EF9238
:10165000FF920F931F93CF93DF931F92CDB7DEB707
:101660007C01C7DFB82E882391F020E030E0F7013D
:10167000E20FF31F108211821282138214821582EC
:101680001682225F3F4F2435310589F74BC000E0B9
:1016900010E0CC24C394D12CF0D280E40DD382E1AD
:1016A0000BD3C601002E01C0880F0A94EAF780957B
:1016B00003D3FAD2E2D280E4FFD283E1FDD2DDD2BD
:1016C00081E4FAD2CE01019615D3EED2698170E0A1
:1016D00040E050E025E030E0D701A00FB11FFD0150
:1016E000E40FF51FCB01022E02C0959587950A9451
:1016F000E2F780958170808321503109425F5F4F0E
:101700002F3F8FEF380759F70F5F1F4F0730110535
:1017100009F0C2CFB2D280E4CFD282E1CDD28FEF36
:10172000CBD2C2D28B2D0F90DF91CF911F910F9111
:10173000FF90EF90DF90CF90BF900895E1E6F0E04A
:1017400080E88083108256985E9824982C9825987B
:101750002698279889EA8093800089E08093810009
:1017600083D23F9885E08A95F1F70000579885E08D
:101770008A95F1F70000549885E08A95F1F700000A
:10178000559885E08A95F1F700006E9885E08A9576
:10179000F1F70000479A85E08A95F1F700005F9A1B
:1017A00085E08A95F1F700005C9A85E08A95F1F76B
:1017B00000005D9A85E08A95F1F70000769A85E051
:1017C0008A95F1F70000879885E08A95F1F7000087
:1017D000869885E08A95F1F70000859885E08A95DE
:1017E000F1F70000849885E08A95F1F70000819870
:1017F00085E08A95F1F70000809885E08A95F1F7F9
:101800000000209885E08A95F1F70000219885E096
:101810008A95F1F70000229885E08A95F1F700009B
:10182000239885E08A95F1F70000529885E08A9523
:10183000F1F70000539885E08A95F1F700003E9893
:1018400085E08A95F1F700008F9A85E08A95F1F797
:1018500000008E9A85E08A95F1F700008D9A85E068
:101860008A95F1F700008C9A85E08A95F1F70000DF
:10187000899A85E08A95F1F70000889A85E08A9533
:10188000F1F70000289885E08A95F1F70000299883
:1018900085E08A95F1F700002A9885E08A95F1F7AE
:1018A00000002B9885E08A95F1F700005A9885E0B2
:1018B0008A95F1F700005B9885E08A95F1F70000C2
:1018C000469885E08A95F1F7000080E00895CF936F
:1018D000DF93FC01209A85E08A95F1F700008FB133
:1018E0008095881F8827881F87839FB181E096FB9A
:1018F000992790F99827958B9FB195FB992790F997
:10190000982793A39FB192959170982791AB9FB11F
:1019100096959170982797AF9FB1DF01AA5BBF4F53
:101920009170982717969C931797209895E09A9511
:10193000F1F70000219A95E09A95F1F700009FB128
:101940009095991F9927991F90879FB196FB99278A
:1019500090F99827968B9FB195FB992790F9982736
:1019600094A39FB192959170982792AB9FB1EF018C
:10197000C05CDF4F96959170982798839FB19170C6
:10198000982718969C931897219895E09A95F1F7C7
:101990000000229A95E09A95F1F700009FB190958A
:1019A000991F9927991F91879FB196FB992790F9C5
:1019B0009827978B9FB195FB992790F9982795A326
:1019C0009FB192959170982793AB9FB1EF01CF5B38
:1019D000DF4F96959170982798839FB191709827C3
:1019E00019969C931997229895E09A95F1F7000023
:1019F000239A95E09A95F1F700009FB19095991F71
:101A00009927991F92879FB196FB992790F998275C
:101A1000908F9FB195FB992790F9982796A39FB136
:101A200092959170982794AB9FB1EF01CE5BDF4FF9
:101A300096959170982798839FB1917098271A96E0
:101A40009C931A97239895E09A95F1F70000529A83
:101A500095E09A95F1F700009FB19095991F99270D
:101A6000991F93879FB196FB992790F99827918F9B
:101A70009FB195FB992790F9982797A39FB19295CD
:101A80009170982795AB9FB1EF01CD5BDF4F969595
:101A90009170982798839FB1917098271B969C937B
:101AA0001B97529895E09A95F1F70000539A95E0AC
:101AB0009A95F1F700009FB19095991F9927991F6A
:101AC00094879FB196FB992790F99827928F9FB1A1
:101AD00095FB992790F9982790A79FB192959170BF
:101AE000982796AB9FB1EF01CC5BDF4F9695917035
:101AF000982798839FB1917098271C969C931C9768
:101B0000539895E09A95F1F700003E9A95E09A95E2
:101B1000F1F700009FB19095991F9927991F95871C
:101B20009FB196FB992790F99827938F9FB195FBCA
:101B3000992790F9982791A79FB19295917098272E
:101B400097AB9FB1EB5BFF4F969591709827908371
:101B50009FB1917098271D969C933E9885E08A9539
:101B6000F1F7000080E0DF91CF9108953ED13FD1A1
:101B700040D141D142D143D144D145D146D147C1D1
:101B8000662309F470C0633E59F138F4613EC1F038
:101B9000F8F4603E09F04CC009C0653E89F140F19F
:101BA000663EB1F1673E09F043C03AC09091210111
:101BB000882311F0916001C09E7F909321010895C8
:101BC00090912101882311F09260F7CF9D7FF5CF8E
:101BD00090912101882311F09460EFCF9B7FEDCF8E
:101BE00090912101882311F09860E7CF977FE5CF8E
:101BF00090912101882311F09061DFCF9F7EDDCF8E
:101C000090912101882311F09062D7CF9F7DD5CF8D
:101C100090912101882311F09064CFCF9F7BCDCF8D
:101C200090912101882311F09068C7CF9F77C5CF8D
:101C3000EBE1F1E020E030E09081882339F0911170
:101C40000CC0F901E55EFE4F60830895961305C050
:101C5000F901E55EFE4F108208952F5F3F4F3196E8
:101C60002630310549F70895E9EBF0E080818C7F5B
:101C7000808388E48093B800089584EA8093BC0050
:101C80008091BC0087FFFCCF8091B900887F8830AD
:101C900049F08091B900887F803121F08091B900AE
:101CA000887F089580E0089584E98093BC00809146
:101CB000BC0084FDFCCF08958093BB0084E8809332
:101CC000BC008091BC0087FFFCCF8091B900887F69
:101CD000883171F08091B900887F883249F0809115
:101CE000B900887F803421F08091B900887F089501
:101CF00080E0089524EC2093BC002091BC0027FFD5
:101D0000FCCF2091BB00FC0120838091B900887F2B
:101D1000803521F08091B900887F089580E0089592
:101D2000CF93DF93C82FD0E0CC0FDD1FC653DE4F1B
:101D3000888109DC19821882DF91CF9108951F9361
:101D4000CF93DF9390916C0220913F02E0913E028D
:101D50003EE0E39FF001112434E5239FE00DF11DE7
:101D60001124E90FF11DE655F14F1491C82FD0E071
:101D7000CC0FDD1FC653DE4F8881E5DB812FC1DB31
:101D800088831982DF91CF911F91089580916C0211
:101D900090913F02E0913E022EE0E29FF00111247B
:101DA00024E5929FE00DF11D1124E80FF11DE65589
:101DB000F14F649180916902E3CE80916B028F5F55
:101DC00080936B02E4DA80933F0290916C02E09181
:101DD0003E022EE0E29FF0011124E90FF11DE651D1
:101DE000FE4F8083A4CA81E0AACF81E099CF82E030
:101DF00097CF83E095CF84E093CF85E091CF86E0C5
:101E00008FCF87E08DCF88E08BCF89E089CF8AE0C4
:101E100087CFF89481E08093E00080E28093D8003F
:101E2000E9ECF0E010828FE19EE40197F1F700C049
:101E300000001DBA109268001CBC10BE1FBA1092A0
:101E40007A0010926E0010926F0010927100109242
:101E500072001082ECEBF0E0108214B817B81AB8D8
:101E60001DB810BA108215B818B81BB81EB811BA30
:101E70000C94003F08958091E80080FFFCCF089506
:101E800081E08093D70080EA8093D80082E189BD09
:101E900009B400FEFDCF80E98093D8001092E000E5
:101EA0001092E6018CE08093E2007894089580918E
:101EB000E60108958091E601811102C08FEF089537
:101EC0008FB7F89493E09093E9009091E4009E5CC2
:101ED00023E03091E80035FD0EC08FBF8091E60110
:101EE000882361F38091E400891741F38FB7F89458
:101EF0002093E900EECF9091E5019093F1001092CC
:101F0000F100EFEDF1E091919093F10091E0E53E69
:101F1000F907C9F79AE39093E8001092E7018FBFA1
:101F200080E008951F920F920FB60F9211248F93A5
:101F30009F93EF93FF938091E1001092E10083FF64
:101F40000FC01092E90091E09093EB001092EC002A
:101F500092E29093ED0098E09093F0001092E601E9
:101F600082FF31C08091E601882369F190911801C8
:101F7000992349F18091E8018F5F8093E801837094
:101F800011F583E08093E9008091E80085FF1BC094
:101F90008091E7018F5F8093E701891314C010924D
:101FA000E7018091E5018093F1001092F100EFEDDF
:101FB000F1E081918093F10081E0E53EF807C9F7F7
:101FC0008AE38093E800FF91EF919F918F910F90AA
:101FD0000FBE0F901F9018951F920F920FB60F9281
:101FE0001124EF92FF920F931F932F933F934F93E0
:101FF0005F936F937F938F939F93AF93BF93EF9371
:10200000FF93CF93DF931F92CDB7DEB71092E90015
:102010008091E80083FF2AC19091F1008091F10046
:102020002091F1003091F100F32EE12CE22A209171
:10203000F1003091F100132F00E0022B6091F100CC
:102040007091F10022EF2093E800863009F04DC036
:1020500047E082EF91E1FC01259134912E153F0577
:1020600009F007C0FC013296259134912017310701
:1020700011F0079615C0FC013496459154919A01D0
:10208000FC0136968491572F40E0462B4F3F510577
:1020900019F010F04FEF50E0481728F4842F03C0D8
:1020A0004150C9F6E3C07EEF9091E800492F45709A
:1020B000D9F392FDDEC0982F813208F090E2A90199
:1020C000692F07C0FA014F5F5F4FE491E093F10081
:1020D00061506111F7CF290F311D891B7093E80002
:1020E0008111E2CF903201F3C4C0853049F48EEF04
:1020F0008093E800C0DE6894E7F8E092E300B9C09E
:10210000893041F591116DC0E092E6018EEF809328
:10211000E80041E083E292E101C0C9014093E90097
:102120009C012F5F3F4FFC0154915093EB005523CE
:1021300061F0F90124912093EC009C012D5F3F4F49
:10214000FC01329684918093ED004F5F453029F772
:102150008EE142C0883039F4903809F042C08BDEFD
:102160008091E60161C0811115C0998384DE998157
:10217000923851F40093E9008091EB0085FB8827A9
:1021800080F91092E90001C080E08093F100109284
:10219000F10063C0813011F0833019F5923009F5F8
:1021A000EF2809F063C00F771127902F91509430DA
:1021B00008F05CC09EEF9093E8000093E900833044
:1021C00009F454C089E18093EB0081E090E0002E97
:1021D00001C0880F0A94EAF78093EA001092EA009F
:1021E00048C0012B09F042C0913A09F5813089F4C9
:1021F00042DE8091E5018093F1001092F100EFED55
:10220000F1E081918093F10031E0E53EF307C9F7F9
:1022100024C0823021F42FDE8091180105C0833064
:1022200029F529DE809119018093F10016C09132C1
:10223000E9F4893061F48091E80082FFFCCF80915D
:10224000F1008093DE018BEF8093E80006C08A30B6
:1022500041F4F09218011092E7018EEF8093E800AC
:1022600008C08B3019F4E0921901F7CF81E2809316
:10227000EB000F90DF91CF91FF91EF91BF91AF9164
:102280009F918F917F916F915F914F913F912F918E
:102290001F910F91FF90EF900F900FBE0F901F9026
:1022A000189580917502089580937502089581E0D4
:1022B00080937402089581E080937602089581E00E
:1022C00080937002089581E0809373020895809155
:1022D0007402882381F0EFEDF1E0ABE1B1E01192FF
:1022E0001D9281E0E53EF807D1F71092E5011092CA
:1022F0002101E0DD1DC080912101EBE1F1E0AFEDB6
:10230000B1E091919D9391E0E132F907D1F780938B
:10231000E501D0DD1092DF011092E0011092E101A1
:102320001092E2011092E3011092E4011092E50193
:102330008FE19EE40197F1F700C0000008958091BD
:102340007502909177029817F1F0882321F086505A
:10235000823088F403C02598269814C08BEF90E053
:102360009093890080938800259A90938D008093A4
:102370008C00279A08958BEF90E0909389008093CA
:102380008800259A2798089510927502C8D044D6DF
:10239000D5C0FACF1092700210927302909175021C
:1023A000963018F4913038F405C0963031F09730FB
:1023B00029F402C081C53CC049C633C6089583379D
:1023C00021F4E2DF81E0809376020895CF93DF93DA
:1023D00010926D02809175028093770210927402C0
:1023E00010927602CBE1D1E088818823A1F0909110
:1023F000760291110FC060912101E1DF609121010E
:102400008881C8DF80917002811105C080917302BC
:10241000811101C01882219681E0C132D80721F7CD
:1024200080917302811101C052DFDF91CF9187CF7C
:102430001F93CF93DF931F92CDB7DEB7182F698319
:1024400030DF69818330E9F018F4823009F505C086
:10245000843029F08530E1F417C0812F07C0812F27
:1024600073D060E080E070D060E088E26DD060E022
:1024700080E06AD020DF80E00F90DF91CF911F9144
:1024800031C0183229F4F1CF183211F410DFF3CF34
:10249000103769F0123789F01331D1F4613011F03F
:1024A0006031B1F40F90DF91CF911F9185C0611120
:1024B0000AC089E793E1E5D204C0611104C080E05D
:1024C00012D183E0D9CF0F90DF91CF911F9127C018
:1024D0000F90DF91CF911F91F2CE90937202809373
:1024E00071020895CF93C82FE0916E02F0916F02B0
:1024F000309729F0099510926F0210926E028C2F7E
:10250000D3DEC63041F0C73021F0C11106C0CF91F3
:10251000D8C4CF91A0C5CF9189C5CF91089580E04F
:10252000E1CF9091A2022AE0929F800D1124853183
:1025300008F401C084E18093A20208951092A202DF
:1025400008958091A2020895CF93DF93CFEDD1E05B
:1025500088836093E501AEDC8FE19EE40197F1F79B
:1025600000C0000018821092E501DF91CF9108951C
:10257000811102C088E001C08AE08093A0026091CE
:10258000A00280E5E1CF811102C088E001C08AE0AD
:102590008093A0026091A0028FE4D6CF80E0E8CFC4
:1025A00084E08093A00264E088E6CECF88E0809348
:1025B000A00268E086E0C8CF88E08093A00268E0CF
:1025C00089E1C2CF1092A00260E08AE2BDCF81E033
:1025D0008093A00261E088E6B7CF83E08093A002F9
:1025E00063E088E6B1CF86E08093A00266E088E6EB
:1025F000ABCF811103C01092A00203C082E0809390
:10260000A0026091A00282E59FCF811103C01092C9
:10261000A00203C082E08093A0026091A00281E545
:1026200093CF811103C01092A00203C082E0809377
:10263000A0026091A00280E587CF811103C01092B3
:10264000A00203C082E08093A0026091A0028FE408
:102650007BCF811103C01092A00203C082E080935F
:10266000A0026091A00264606093A00280E56CCF3C
:10267000811103C01092A00203C082E08093A002E7
:102680006091A00264606093A0028FE45DCF8CE053
:102690008093A0026CE088E657CF87E08093A00289
:1026A00067E088E651CF60E08CE24ECF8EE0809309
:1026B000A0026EE088E648CF8AE08093A0026AE03C
:1026C00088E642CF88E08093A00268E084E03CCFB7
:1026D00088E08093A00268E08AE036CF8AE08093A9
:1026E000A0026AE031CF88E08093A00268E08CE22B
:1026F0002BCF8DE08093A0026DE089E025CFCF93B2
:10270000C82F6091A3028091A4021EDF81E0809314
:10271000A5020DC060E080E017DF6091A302809108
:10272000A40212DF9091A5029F5F9093A502809171
:10273000A5028C1778F3CF91089588E08093A002CA
:1027400068E086E101CF88E08093A00268E084E140
:10275000FBCE88E08093A00268E08FE4F5CE88E0AD
:102760008093A00268E080E5EFCE88E08093A0022D
:1027700068E089E0E9CE88E08093A00268E08DE11E
:10278000E3CE1092A00260E08CE4DECE1092A002B4
:1027900060E080E5D9CE82E08093A00262E08FE421
:1027A000D3CECF93C8E0C093A00268E080E5CCDE32
:1027B0001092A00260E088E2C7DE1092A00260E002
:1027C00082E5C2DEC093A00268E089E1CF91BCCE71
:1027D000CF93C8E0C093A00268E08FE4B5DE10920A
:1027E000A00260E088E2B0DEC093A00268E080E56D
:1027F000ABDEC093A00268E089E1CF91A5CE88E06E
:102800008093A00268E08FE49FDE1092A00260E057
:1028100088E29ACE8AE08093A0026AE095CE88E0B2
:102820008093A00268E08AE08FCE88E08093A002C7
:1028300068E08FE489CE1092A00260E08FE484CE3D
:10284000ADCEACDE1092A00260E088E27DDE109298
:10285000A00260E082E578CEA1CE1092A00260E0F6
:1028600089E272DE60E080E06FDE32CF1092A0027B
:1028700060E089E269DE60E080E066DE29CF1092E8
:10288000A00260E089E260DE60E080E05DDE26CFED
:102890001092A00260E089E257DE60E080E054DE42
:1028A0001DCF84CE80E0E4CECF93C82F81E0E0DE60
:1028B00081E08093A5020AC060E080E045DE81E00F
:1028C000D7DE9091A5029F5F9093A5028091A5020B
:1028D0008C1790F36BDE80E0CF91A3CE61DE109277
:1028E000A00260E08FE430CE5BDE1092A00260E0D8
:1028F0008AE22ACE6CDE54DE59DE6FCECF93C82F2B
:1029000066DE80E035DE81E08093A5020AC060E0EB
:1029100080E01ADE81E079DE9091A5029F5F9093BE
:10292000A5028091A5028C1790F381E02CDE3EDE9B
:10293000CF9153CEB2CEABCEC5DE80E072CEC2DE3A
:1029400080E07BCEB9CE81E01EDE30DE3BCECF9381
:10295000C82F81E08DDE81E08093A5020AC060E08F
:1029600080E0F2DD81E084DE9091A5029F5F90938C
:10297000A5028091A5028C1790F318DECF9122CE8C
:10298000CF93C82F81E074DE81E08093A5020AC056
:1029900060E080E0D9DD81E06BDE9091A5029F5F71
:1029A0009093A5028091A5028C1790F3CF910ACE47
:1029B000F7DDFCDD07CECF93C82F80E0D9DD81E0C5
:1029C0008093A5020AC060E080E0BEDD81E01DDEEC
:1029D0009091A5029F5F9093A5028091A5028C170C
:1029E00090F381E0D0DDE2DDCF91ECCDCF93C82F25
:1029F000EEDD80E0BDDD81E08093A5020AC060E0ED
:102A000080E0A2DD81E001DE9091A5029F5F9093BE
:102A1000A5028091A5028C1790F381E0B4DDC6DD9C
:102A2000DCDD41DE80E0A4DD81E08093A5020AC008
:102A300060E080E089DD81E0E8DD9091A5029F5FA4
:102A40009093A5028091A5028C1790F381E09BDD05
:102A5000B9DD60E080E078DDCF91B4CD27CE80E0B5
:102A6000F8CD843119F08A3159F405C0611108C0DC
:102A700083E595E104C0611103C08BE495E12DCDA0
:102A80004ECDCF93DF93EC015CDDFE01099556DD61
:102A9000DF91CF9144CD883229F4611103C08DE9D3
:102AA00093E1EFCF3CCD883229F4611103C083EA72
:102AB00093E1E7CF34CD863199F018F48430D1F426
:102AC00005C08A3141F08C31A9F40FC0611112C0E8
:102AD0008BE795E102CD61110DC084E594E109C059
:102AE000611108C081E594E104C0611103C08EE763
:102AF00094E1C7CF14CD882311F08A3119F48AE705
:102B000094E1BFCF0CCD882311F08A3019F48CE901
:102B100094E1B7CF04CD873071F018F48430E1F43C
:102B200005C08A3169F08132B9F40FC0611114C057
:102B30008DEA95E1D2CC61110FC086EF94E10BC014
:102B400061110AC087EA94E106C0623011F0603278
:102B500019F483EA94E195CFE2CC882311F08A310D
:102B600019F484E794E18DCFDACC863049F08A31CC
:102B700061F0843089F461110FC08DEC95E1ADCC2A
:102B800061110AC08BED94E104C0611105C080ECB5
:102B900094E177DF81E0A6CCC2CC8A3139F46111AF
:102BA00005C088ED94E16DDF81E09CCCB8CC8093CA
:102BB000A4026093A3028FE793E163CF90E0FC014E
:102BC0003497EF36F10508F076C1EA5AFF4F59C243
:102BD000611171C181E003C061116DC182E0A1CCBE
:102BE000611169C183E0FBCF623029F0603219F0D6
:102BF000662321F060C189EA93E10FC084E0EFCF42
:102C0000611159C185E0EBCF623029F0603219F0D3
:102C1000662321F050C180E294E133CF86E0DFCF1C
:102C2000611149C187E0DBCF611145C188E0D7CF91
:102C3000611141C189E0D3CF61113DC182DC88239C
:102C400011F080E0CCCF8FEA93E1E7CF623029F03A
:102C5000603219F0662321F02EC185E194E1C9C0EC
:102C60008BE194E1C6C0613021F038F0603109F0A9
:102C700022C129DB82EA94E1D0CF25DB8FE295E106
:102C8000CCCF611118C185EB95E101C1611113C170
:102C90008BE895E1FCC061110EC18EE694E1BDCFD9
:102CA000623089F030F46623B1F0613009F003C17D
:102CB00006C0603121F0603209F0FDC004C003DBC2
:102CC0008EE295E1AACF85EB93E1DBDE82E00ADCC0
:102CD00088E494E1D1C085EB93E1D3DE82E002DCAD
:102CE00086E394E1C9C0623029F0603219F06623AE
:102CF00021F0E1C08FE994E190CF83E895E1C7C06E
:102D00006111D9C0E0DA60E080E59AC0623031F04C
:102D1000603221F0662309F46DC0CDC08CE294E1ED
:102D200068C0613021F038F0603109F0C4C0CBDAFE
:102D30008AE994E172CFC7DA60E081E581C0613051
:102D400021F038F0603109F0B6C0BDDA8BE994E1CA
:102D500064CFB9DA60E082E573C06111ACC0B3DA68
:102D600060E08FE46DC0623029F0603219F06623B4
:102D700021F0A1C08AE094E150CF8FE094E14DCFE3
:102D8000623029F0603219F0662321F094C081E2AC
:102D900094E12FC08FEF93E12CC0623071F030F4DA
:102DA000662371F0613009F086C006C0603121F001
:102DB000603209F080C001C0FFCB81ED93E12DCFDF
:102DC00088EE93E12ACF611176C08BEC93E159DE56
:102DD00082E088DB86EC93E14FC0623029F06032FC
:102DE00019F0662321F067C08BED94E102C081ECFD
:102DF00093E147DE81E05DC061115DC08BEB93E143
:102E00000CCF623029F0603219F0662319F053C0FC
:102E100087E04FC086E04DC061114DC054DA82E5B5
:102E200094E1FBCE623029F0603219F0662329F07C
:102E300042C049DA60E08AE203C045DA60E08CE42F
:102E4000B6CE611138C08BE595E121C0623029F022
:102E5000603219F0662349F02EC085EB93E111DE54
:102E600085E040DB8FE394E107C085EB93E109DE69
:102E700085E038DB8DE294E190936F0280936E02DF
:102E80000895623011F06032B1F481E395E125CB11
:102E9000683011F0603879F412DA0AC061110BC0A1
:102EA00083E793E104C0611106C089E793E1E9DD9E
:102EB00083E018CB04CA33CBE0917102F091720227
:102EC00009948EED95E190937202809371020895BA
:102ED00084CB8C3079F038F4863009F43DC08730EB
:102EE00009F043C036C08E3041F148F08C3109F012
:102EF0003CC037C010926F0210926E0230C08091B9
:102F0000A6029091A70201979093A7028093A60230
:102F100081E07BDB8091A6029091A702892B61F46E
:102F200060E080E011DB59DB60E080E00DDB4FDB2F
:102F300060E080E009DB57CBC6C98091A602909182
:102F4000A70201969093A7028093A60281E051DB2D
:102F5000E1CF2CDB37DB06C029DB34DB3EDB81E055
:102F600003C024DB3ADB80E0BDCA08958E3009F44B
:102F700038C080F4873029F130F48530E1F08630B4
:102F800009F049C01BC08C3019F140F58B3009F0B5
:102F900042C01BC08C3171F130F48F3029F18A317D
:102FA00009F039C024C0833269F1873281F181325E
:102FB00009F031C021C081E04CDB09C0F7DA02DB47
:102FC0000BC0F4DAFFDA80E08DCA81E02ADB7BC92E
:102FD00010926F0210926E0281E0F6CF81E015DB55
:102FE000F6CF81E006DBF3CF81E027DBF0CF81E095
:102FF0003FDBEDCFDBDAE7CF623011F0603259F41E
:1030000081E0C1CA623029F0603229F402C0611146
:1030100002C081E0ADCA08951092A7021092A602E4
:103020000895E0917102F0917202099486EB97E1A4
:10303000909372028093710288E697E190936F02F9
:1030400080936E02C4DA60E080E07ECAE091710293
:10305000F091720209941092A7021092A602B7DAB8
:1030600060E080E071DABFDA89E697E1909372025E
:103070008093710288E697E190936F0280936E02CD
:103080000895EE0FFF1F0590F491E02D0994F89438
:02309000FFCF70
:10309200010000000000000000000000000000002D
:0A30A20000000000220176017D010C
:00000001FF
