:100000000C9479090C9495090C9495090C94950914
:100010000C9495090C9495090C9495090C949509E8
:100020000C9495090C9495090C94920F0C94EC0F78
:100030000C9495090C9495090C9495090C949509C8
:100040000C9495090C9495090C9495090C949509B8
:100050000C9495090C9495090C9495090C949509A8
:100060000C9495090C9495090C9495090C94950998
:100070000C9495090C9495090C9495090C94950988
:100080000C9495090C9495090C9495090C94950978
:100090000C9495090C9495090C9495090C94950968
:1000A0000C9495090C9495090C94950951145E14BF
:1000B0006C14711476147B145B158A1490149B14C1
:1000C000A914B7145B15BE14CB14DB145B15E8142C
:1000D000F0145B150315091516151B152C155B156A
:1000E000121416141B141F142B142F143B143F143A
:1000F00043144714591559155915591559155B15B8
:100100005B155B155B155B155B1542155B155B1588
:100110005B155B153A155B155B155B155B155B1580
:100120005B155B155B155B155B155B155B155B154F
:100130005B155B155B155B155B155B1559155B1541
:100140005B155B155B155B155B155B155B155B152F
:100150005B155B155B155B155B155B155B155B151F
:100160005B155B155B155B155B155B155B155B150F
:100170005B155B155B155B155B155B155B155B15FF
:100180005B155B1552155B154A150000C60EC60EB1
:10019000C60EC60EC60EC60E0000C60EC60EC60E93
:1001A000C60EC60E0000C60EC60EC60EC60EC60E83
:1001B0000000000000000000C60EC60EC60EC60EEF
:1001C000C60EC60EC60EC60EC60EC60EC60EC60E8F
:1001D000C60EC60EC60EC60EC60EC60EC60E000053
:1001E000C60EC60EC60EC60EC60E00000000C60E17
:1001F000C60EC60EC60EC60EC60EC60EC60EC60E5F
:10020000C60EC60EC60EC60EC60EC60EC60EC60E4E
:10021000C60EC60EC60EC60EC60EC60EC60EC60E3E
:10022000C60EC60EC60EC60EC60EC60EC60EC60E2E
:10023000C60E0000DD0EDD0EDD0E00000000000029
:10024000DD0E00000000DD0EDD0EDD0E0000DD0E17
:10025000DD0E00000000DD0E0000000000000000C8
:10026000DD0E00000000DD0EDD0EDD0E00000000E2
:10027000000000000000DD0EDD0E0000C60EC60E00
:10028000C60EC60EDD0E00000000000000000000DB
:10029000000000000000C60EC60EC60EC60EC60E3A
:1002A0000000DD0E00000000000000000000DD0E78
:1002B0000000C60EC60EC60EC60EC60E0000C60E46
:1002C000C60EC60EC60EC60EC60E00000000C60E36
:1002D000C60EC60EC60EC60EC60E000000000000FA
:1002E000000000000000000000000000000000000E
:1002F00000000000000000000000000000000000FE
:1003000000000000000000000000000000000000ED
:1003100000000000000000000000000000000000DD
:10081000000000000000000000000000C60EC60E30
:10082000C60EC60EC60EC60E090FC60EC60EC60EE4
:10083000C60EC60E0000C60EC60EC60EC60EC60EEC
:100840000000000000000000C60EC60EC60EC60E58
:10085000C60EC60EC60EC60EC60EC60EC60EC60EF8
:10086000C60EC60EC60EC60EC60EC60EC60EF30EBB
:10087000C60EC60EC60EC60EC60E00000000C60E80
:10088000C60EC60EC60EC60EC60EC60EC60EC60EC8
:10089000C60EC60EC60EC60EC60EC60EC60EC60EB8
:1008A000C60EC60EC60EC60EC60EC60EC60EC60EA8
:1008B000C60EC60EC60EC60EC60EC60EC60EC60E98
:1008C000C60E0000DD0EDD0EDD0E00000000000093
:1008D000DD0E00000000DD0EDD0EDD0E0000DD0E81
:1008E000DD0E00000000DD0E000000000000000032
:1008F000DD0E00000000DD0EDD0EDD0E000000004C
:10090000000000000000DD0EDD0E0000C60EC60E69
:10091000C60EC60EDD0EF50E000000000000000041
:10092000000000000000C60EC60EC60EC60EC60EA3
:100930000000DD0E00000000000000000000DD0EE1
:100940000000C60EC60EC60EC60EC60E0000C60EAF
:10095000C60EC60EC60EC60EC60EB60DB60DC60E19
:10096000C60EC60EC60EC60EC60E00000000000063
:100970000000000000000000000000000000000077
:100980000000000000000000000000000000000067
:100990000000000000000000000000000000000057
:1009A0000000000000000000000000000000000047
:100EA0000000000000000000000000E04C2A6C6E12
:100EB0006D006F6B2C28E400E0E2352EE3000000AB
:100EC00000E72F30E6E4E11D1B06190572701110D2
:100ED000363738E501041607090A00000B0D0E0F1E
:100EE00033342B141A081517716A1C180C1213319D
:100EF000291E1F202122737323242526272D00005D
:100F000000000000000000000000000000000000E1
:100F100000000000000000000000000000000000D1
:100F2000000000595A5B280001000000000000008A
:100F3000555C5D5E57000000000000000000545F3B
:100F4000606156003A3B3C3D3E3F00004041424319
:100F50004445000000000000000000000000000008
:100F60000000000000000000000000000000000081
:100F70000000000000000000000000000000000071
:100F80000000000000000000000000000000000061
:100F90000000000000000000000000000000000051
:1011F000000000010000291212000200003B122230
:10120000002200005D123F002100004D1209000382
:1012100000009C120401030904A01218020309042F
:10122000BA1236000001C1060012010002000000DF
:1012300020501D2860000101020001090222000166
:101240000100C0320904000001030101000921115D
:10125000010001223F000705830308000105010981
:1012600006A10175019508050719E029E715002574
:10127000018102950175088103950575010508191D
:1012800001290591029501750391039506750815CD
:101290000025680507190029688100C004030904B6
:1012A000180375006E00730070006500630069002C
:1012B00066006900650064000000360345007200A6
:1012C00067006F0044006F00780020006500720026
:1012D00067006F006E006F006D0069006300200002
:1012E0006B006500790062006F00610072006400AD
:1012F000000011241FBECFEFDAE0DEBFCDBF11E04A
:10130000A0E0B1E0E2EEFAE202C005900D92AA314F
:10131000B107D9F712E0AAE1B1E001C01D92AC37E4
:10132000B107E1F743D00C946F150C9400002091A5
:10133000690280916C0290913F02E0913E0222236B
:1013400081F02EE0E29FF001112424E5929FE00D50
:10135000F11D1124E80FF11DEE0FFF1FE65EF74FA0
:101360000FC02EE0E29FF001112424E5929FE00DD2
:10137000F11D1124E80FF11DEE0FFF1FE657FE4F80
:1013800085919491FC01009709F009940895E091EA
:101390001A01E81748F0F0E0E81BF109EE0FFF1F13
:1013A000E05CFD4F8081089580E0089504D18CE0D9
:1013B00090E0909389008093880090938B008093B5
:1013C0008A0090938D0080938C00259A269A279A04
:1013D00057D56DD58823E9F38FE790E09093890086
:1013E000809388002FE732E440E1215030404040B4
:1013F000E1F700C0000090938B0080938A002FE7F4
:1014000032E440E1215030404040E1F700C00000AC
:1014100090938D0080938C002FE732E440E12150BF
:1014200030404040E1F700C00000259826982798FA
:10143000909389008093880090938B0080938A001A
:1014400090938D0080938C0084D73EE0F32E8091A2
:1014500014019091150120911601309117013093DC
:101460001501209314019093170180931601AFD0BA
:101470001092E9013FC010926A0233C0E091160158
:10148000F0911701F19EC0011124800F911DE80F0A
:10149000F91F208120936902E0911401F091150158
:1014A000E80FF91F3081309368022317A9F0EC018F
:1014B000C651DE4F222331F080E069DF80933F0286
:1014C000888303C0888180933F0210933E0200937B
:1014D0006C0210926B022BDF80916A028F5F809307
:1014E0006A0200916A021091E9010E3038F21F5F22
:1014F0001093E9018091E901863008F4BCCF40D710
:10150000A6CF982FE1E0F1E021E030E0822F419179
:10151000411112C0F901E050FF4F31E03083E091FA
:101520001A01EF5FE0931A01F0E0EE0FFF1FE05C9D
:10153000FD4F9083218308952F5F3F4F2431310564
:1015400029F780E00895CF93DF9320911A0191E06D
:10155000C82FD0E0C050DF4F27C0E92FF0E0EE0FDA
:10156000FF1FE05CFD4F318138131DC00FC0DF014C
:10157000AA0FBB1FAE5BBD4F3C91EE0FFF1FE05C9F
:10158000FD4F308311963C9131839F5FE92FF0E04E
:101590009213EDCFEE0FFF1FE05CFD4F1082118222
:1015A0001882292F21509F5F2917B8F620931A011E
:1015B000DF91CF910895C2D0811105C01AD0882340
:1015C00021F082E0089581E0089580E00895CF93AE
:1015D000DF93EC017CD1811106C0CE0135D0882388
:1015E00021F082E003C081E001C080E0DF91CF9173
:1015F0000895CF9342D380E45FD3C82F811120C0D8
:1016000080E05AD380E858D38FEF56D34DD335D3EB
:1016100080E452D3C82F811113C08CE04DD380E8F1
:101620004BD38FEF49D340D328D380E445D3C82F81
:10163000811106C084E140D38FEF3ED38FEF3CD3BE
:1016400033D38C2FCF910895BF92CF92DF92EF9238
:10165000FF920F931F93CF93DF931F92CDB7DEB707
:101660007C01C7DFB82E882391F020E030E0F7013D
:10167000E20FF31F108211821282138214821582EC
:101680001682225F3F4F2435310589F74BC000E0B9
:1016900010E0CC24C394D12CF0D280E40DD382E1AD
:1016A0000BD3C601002E01C0880F0A94EAF780957B
:1016B00003D3FAD2E2D280E4FFD283E1FDD2DDD2BD
:1016C00081E4FAD2CE01019615D3EED2698170E0A1
:1016D00040E050E025E030E0D701A00FB11FFD0150
:1016E000E40FF51FCB01022E02C0959587950A9451
:1016F000E2F780958170808321503109425F5F4F0E
:101700002F3F8FEF380759F70F5F1F4F0730110535
:1017100009F0C2CFB2D280E4CFD282E1CDD28FEF36
:10172000CBD2C2D28B2D0F90DF91CF911F910F9111
:10173000FF90EF90DF90CF90BF900895E1E6F0E04A
:1017400080E88083108256985E9824982C9825987B
:101750002698279889EA8093800089E08093810009
:1017600083D23F9885E08A95F1F70000579885E08D
:101770008A95F1F70000549885E08A95F1F700000A
:10178000559885E08A95F1F700006E9885E08A9576
:10179000F1F70000479A85E08A95F1F700005F9A1B
:1017A00085E08A95F1F700005C9A85E08A95F1F76B
:1017B00000005D9A85E08A95F1F70000769A85E051
:1017C0008A95F1F70000879885E08A95F1F7000087
:1017D000869885E08A95F1F70000859885E08A95DE
:1017E000F1F70000849885E08A95F1F70000819870
:1017F00085E08A95F1F70000809885E08A95F1F7F9
:101800000000209885E08A95F1F70000219885E096
:101810008A95F1F70000229885E08A95F1F700009B
:10182000239885E08A95F1F70000529885E08A9523
:10183000F1F70000539885E08A95F1F700003E9893
:1018400085E08A95F1F700008F9A85E08A95F1F797
:1018500000008E9A85E08A95F1F700008D9A85E068
:101860008A95F1F700008C9A85E08A95F1F70000DF
:10187000899A85E08A95F1F70000889A85E08A9533
:10188000F1F70000289885E08A95F1F70000299883
:1018900085E08A95F1F700002A9885E08A95F1F7AE
:1018A00000002B9885E08A95F1F700005A9885E0B2
:1018B0008A95F1F700005B9885E08A95F1F70000C2
:1018C000469885E08A95F1F7000080E00895CF936F
:1018D000DF93FC01209A85E08A95F1F700008FB133
:1018E0008095881F8827881F87839FB181E096FB9A
:1018F000992790F99827958B9FB195FB992790F997
:10190000982793A39FB192959170982791AB9FB11F
:1019100096959170982797AF9FB1DF01AA5BBF4F53
:101920009170982717969C931797209895E09A9511
:10193000F1F70000219A95E09A95F1F700009FB128
:101940009095991F9927991F90879FB196FB99278A
:1019500090F99827968B9FB195FB992790F9982736
:1019600094A39FB192959170982792AB9FB1EF018C
:10197000C05CDF4F96959170982798839FB19170C6
:10198000982718969C931897219895E09A95F1F7C7
:101990000000229A95E09A95F1F700009FB190958A
:1019A000991F9927991F91879FB196FB992790F9C5
:1019B0009827978B9FB195FB992790F9982795A326
:1019C0009FB192959170982793AB9FB1EF01CF5B38
:1019D000DF4F96959170982798839FB191709827C3
:1019E00019969C931997229895E09A95F1F7000023
:1019F000239A95E09A95F1F700009FB19095991F71
:101A00009927991F92879FB196FB992790F998275C
:101A1000908F9FB195FB992790F9982796A39FB136
:101A200092959170982794AB9FB1EF01CE5BDF4FF9
:101A300096959170982798839FB1917098271A96E0
:101A40009C931A97239895E09A95F1F70000529A83
:101A500095E09A95F1F700009FB19095991F99270D
:101A6000991F93879FB196FB992790F99827918F9B
:101A70009FB195FB992790F9982797A39FB19295CD
:101A80009170982795AB9FB1EF01CD5BDF4F969595
:101A90009170982798839FB1917098271B969C937B
:101AA0001B97529895E09A95F1F70000539A95E0AC
:101AB0009A95F1F700009FB19095991F9927991F6A
:101AC00094879FB196FB992790F99827928F9FB1A1
:101AD00095FB992790F9982790A79FB192959170BF
:101AE000982796AB9FB1EF01CC5BDF4F9695917035
:101AF000982798839FB1917098271C969C931C9768
:101B0000539895E09A95F1F700003E9A95E09A95E2
:101B1000F1F700009FB19095991F9927991F95871C
:101B20009FB196FB992790F99827938F9FB195FBCA
:101B3000992790F9982791A79FB19295917098272E
:101B400097AB9FB1EB5BFF4F969591709827908371
:101B50009FB1917098271D969C933E9885E08A9539
:101B6000F1F7000080E0DF91CF9108953ED13FD1A1
:101B700040D141D142D143D144D145D146D147C1D1
:101B8000662309F470C0633E59F138F4613EC1F038
:101B9000F8F4603E09F04CC009C0653E89F140F19F
:101BA000663EB1F1673E09F043C03AC09091210111
:101BB000882311F0916001C09E7F909321010895C8
:101BC00090912101882311F09260F7CF9D7FF5CF8E
:101BD00090912101882311F09460EFCF9B7FEDCF8E
:101BE00090912101882311F09860E7CF977FE5CF8E
:101BF00090912101882311F09061DFCF9F7EDDCF8E
:101C000090912101882311F09062D7CF9F7DD5CF8D
:101C100090912101882311F09064CFCF9F7BCDCF8D
:101C200090912101882311F09068C7CF9F77C5CF8D
:101C3000EBE1F1E020E030E09081882339F0911170
:101C40000CC0F901E55EFE4F60830895961305C050
:101C5000F901E55EFE4F108208952F5F3F4F3196E8
:101C60002630310549F70895E9EBF0E080818C7F5B
:101C7000808388E48093B800089584EA8093BC0050
:101C80008091BC0087FFFCCF8091B900887F8830AD
:101C900049F08091B900887F803121F08091B900AE
:101CA000887F089580E0089584E98093BC00809146
:101CB000BC0084FDFCCF08958093BB0084E8809332
:101CC000BC008091BC0087FFFCCF8091B900887F69
:101CD000883171F08091B900887F883249F0809115
:101CE000B900887F803421F08091B900887F089501
:101CF00080E0089524EC2093BC002091BC0027FFD5
:101D0000FCCF2091BB00FC0120838091B900887F2B
:101D1000803521F08091B900887F089580E0089592
:101D2000CF93DF93C82FD0E0CC0FDD1FC653DE4F1B
:101D3000888109DC19821882DF91CF9108951F9361
:101D4000CF93DF9390916C0220913F02E0913E028D
:101D50003EE0E39FF001112434E5239FE00DF11DE7
:101D60001124E90FF11DE655F14F1491C82FD0E071
:101D7000CC0FDD1FC653DE4F8881E5DB812FC1DB31
:101D800088831982DF91CF911F91089580916C0211
:101D900090913F02E0913E022EE0E29FF00111247B
:101DA00024E5929FE00DF11D1124E80FF11DE65589
:101DB000F14F649180916902E3CE80916B028F5F55
:101DC00080936B02E4DA80933F0290916C02E09181
:101DD0003E022EE0E29FF0011124E90FF11DE651D1
:101DE000FE4F8083A4CA81E0AACF81E099CF82E030
:101DF00097CF83E095CF84E093CF85E091CF86E0C5
:101E00008FCF87E08DCF88E08BCF89E089CF8AE0C4
:101E100087CFF89481E08093E00080E28093D8003F
:101E2000E9ECF0E010828FE19EE40197F1F700C049
:101E300000001DBA109268001CBC10BE1FBA1092A0
:101E40007A0010926E0010926F0010927100109242
:101E500072001082ECEBF0E0108214B817B81AB8D8
:101E60001DB810BA108215B818B81BB81EB811BA30
:101E70000C94003F08958091E80080FFFCCF089506
:101E800081E08093D70080EA8093D80082E189BD09
:101E900009B400FEFDCF80E98093D8001092E000E5
:101EA0001092E6018CE08093E2007894089580918E
:101EB000E60108958091E601811102C08FEF089537
:101EC0008FB7F89493E09093E9009091E4009E5CC2
:101ED00023E03091E80035FD0EC08FBF8091E60110
:101EE000882361F38091E400891741F38FB7F89458
:101EF0002093E900EECF9091E5019093F1001092CC
:101F0000F100EFEDF1E091919093F10091E0E53E69
:101F1000F907C9F79AE39093E8001092E7018FBFA1
:101F200080E008951F920F920FB60F9211248F93A5
:101F30009F93EF93FF938091E1001092E10083FF64
:101F40000FC01092E90091E09093EB001092EC002A
:101F500092E29093ED0098E09093F0001092E601E9
:101F600082FF31C08091E601882369F190911801C8
:101F7000992349F18091E8018F5F8093E801837094
:101F800011F583E08093E9008091E80085FF1BC094
:101F90008091E7018F5F8093E701891314C010924D
:101FA000E7018091E5018093F1001092F100EFEDDF
:101FB000F1E081918093F10081E0E53EF807C9F7F7
:101FC0008AE38093E800FF91EF919F918F910F90AA
:101FD0000FBE0F901F9018951F920F920FB60F9281
:101FE0001124EF92FF920F931F932F933F934F93E0
:101FF0005F936F937F938F939F93AF93BF93EF9371
:10200000FF93CF93DF931F92CDB7DEB71092E90015
:102010008091E80083FF2AC19091F1008091F10046
:102020002091F1003091F100F32EE12CE22A209171
:10203000F1003091F100132F00E0022B6091F100CC
:102040007091F10022EF2093E800863009F04DC036
:1020500047E082EF91E1FC01259134912E153F0577
:1020600009F007C0FC013296259134912017310701
:1020700011F0079615C0FC013496459154919A01D0
:10208000FC0136968491572F40E0462B4F3F510577
:1020900019F010F04FEF50E0481728F4842F03C0D8
:1020A0004150C9F6E3C07EEF9091E800492F45709A
:1020B000D9F392FDDEC0982F813208F090E2A90199
:1020C000692F07C0FA014F5F5F4FE491E093F10081
:1020D00061506111F7CF290F311D891B7093E80002
:1020E0008111E2CF903201F3C4C0853049F48EEF04
:1020F0008093E800C0DE6894E7F8E092E300B9C09E
:10210000893041F591116DC0E092E6018EEF809328
:10211000E80041E083E292E101C0C9014093E90097
:102120009C012F5F3F4FFC0154915093EB005523CE
:1021300061F0F90124912093EC009C012D5F3F4F49
:10214000FC01329684918093ED004F5F453029F772
:102150008EE142C0883039F4903809F042C08BDEFD
:102160008091E60161C0811115C0998384DE998157
:10217000923851F40093E9008091EB0085FB8827A9
:1021800080F91092E90001C080E08093F100109284
:10219000F10063C0813011F0833019F5923009F5F8
:1021A000EF2809F063C00F771127902F91509430DA
:1021B00008F05CC09EEF9093E8000093E900833044
:1021C00009F454C089E18093EB0081E090E0002E97
:1021D00001C0880F0A94EAF78093EA001092EA009F
:1021E00048C0012B09F042C0913A09F5813089F4C9
:1021F00042DE8091E5018093F1001092F100EFED55
:10220000F1E081918093F10031E0E53EF307C9F7F9
:1022100024C0823021F42FDE8091180105C0833064
:1022200029F529DE809119018093F10016C09132C1
:10223000E9F4893061F48091E80082FFFCCF80915D
:10224000F1008093DE018BEF8093E80006C08A30B6
:1022500041F4F09218011092E7018EEF8093E800AC
:1022600008C08B3019F4E0921901F7CF81E2809316
:10227000EB000F90DF91CF91FF91EF91BF91AF9164
:102280009F918F917F916F915F914F913F912F918E
:102290001F910F91FF90EF900F900FBE0F901F9026
:1022A000189580937502089581E0809370020895D7
:1022B00081E080937302089580917402882381F0F5
:1022C000EFEDF1E0ABE1B1E011921D9281E0E53E6E
:1022D000F807D1F71092E50110922101EBDD1DC046
:1022E00080912101EBE1F1E0AFEDB1E091919D939F
:1022F00091E0E132F907D1F78093E501DBDD10923F
:10230000DF011092E0011092E1011092E2011092BF
:10231000E3011092E4011092E5018FE19EE4019740
:10232000F1F700C000000895809175029091770246
:10233000981759F0882341F08BEF90E09093890033
:1023400080938800259A0895259808951092750223
:1023500057C0FCCF109270021092730290917502D8
:10236000992319F0913021F401C0A7C39093700212
:102370000895833721F4EADF81E08093760208959F
:10238000CF93DF9310926D02809175028093770254
:102390001092740210927602CBE1D1E088818823FA
:1023A000A1F09091760291110FC060912101E1DFBF
:1023B000609121018881CEDF80917002811105C07A
:1023C00080917302811101C01882219681E0C1328F
:1023D000D80721F780917302811101C06DDFDF9171
:1023E000CF91A2CF90937202809371020895CF9300
:1023F000C82F57DFC11102C0CF9164C3CF91089598
:1024000080E0F5CF909179022AE0929F800D11240F
:10241000853108F401C084E1809379020895109217
:1024200079020895809179020895CF93DF93CFEDDB
:10243000D1E088836093E5013DDD8FE19EE4019763
:10244000F1F700C0000018821092E501DF91CF91F2
:102450000895811102C088E001C08AE0809378026B
:102460006091780280E5E1CF811102C088E001C06F
:102470008AE080937802609178028FE4D6CF80E082
:10248000E8CF84E08093780264E088E6CECF88E0ED
:102490008093780268E086E0C8CF1092780260E00E
:1024A0008AE2C3CF81E08093780261E088E6BDCF05
:1024B00083E08093780263E088E6B7CF811103C0A0
:1024C0001092780203C082E08093780260917802D3
:1024D00080E5ABCF811103C01092780203C082E087
:1024E000809378026091780264606093780280E55E
:1024F0009CCF811103C01092780203C082E08093C8
:102500007802609178026460609378028FE48DCFE6
:102510008CE0809378026CE088E687CF87E0809338
:10252000780267E088E681CF60917A0280917B0231
:102530007CCF8CE0809378026CE089E076CF88E0F5
:102540008093780268E08CE270CF88E08093780214
:1025500068E086E16ACF88E08093780268E084E1F1
:1025600064CF88E08093780268E08FE45ECF88E0F3
:102570008093780268E080E558CF88E08093780205
:1025800068E089E052CF88E08093780268E08DE1CE
:102590004CCF1092780260E08CE447CF82E08093C9
:1025A000780262E08FE441CFCF93C8E0C093780215
:1025B00068E080E53ADF1092780260E088E235DF7B
:1025C0001092780260E082E530DFC093780268E024
:1025D00089E1CF912ACFCF93C8E0C093780268E019
:1025E0008FE423DF1092780260E088E21EDFC09360
:1025F000780268E080E519DFC093780268E089E13D
:10260000CF9113CF88E08093780268E08FE40DDFEC
:102610001092780260E088E208CF8AE08093780226
:102620006AE003CF88E08093780268E08AE0FDCE1C
:102630008AE0809378026AE088E6F7CE85E08093AE
:10264000780265E088E6F1CE8EE0809378026EE055
:1026500088E6EBCE88E08093780268E08FE4E5CEF0
:102660001092780260E08FE4E0CE09CF08DF10928C
:10267000780260E088E2D9DE1092780260E082E5BC
:10268000D4CEFDCE04CF80E034CF81E032DFFFDE58
:1026900080E014CFF6DE1092780260E08FE4C5CEC1
:1026A000F0DE1092780260E08AE2BFCEFBDEE9DE67
:1026B000EEDEFECEF7DE80E0CCDE81E0D5DEE7DECA
:1026C000F7CE2CCF25CF81E014DFE7CE81E011DFFC
:1026D000E4CED7DEDCDEE1CE80E0BBDE81E0C4DE2E
:1026E000D6DECDDE81E0C0DED8CE80E0F3CE843110
:1026F00019F08A3159F405C0611108C089E993E1E4
:1027000004C0611103C081E993E16CCE79CECF930F
:10271000DF93EC0187DEFE01099581DEDF91CF9129
:102720006FCE883229F4611103C085EA92E1EFCFC0
:1027300067CE883229F4611103C08BEA92E1E7CFBA
:102740005FCE8A3149F08C3161F0843079F46111C7
:102750000DC087EB93E146CE611108C085E493E19B
:1027600004C0611103C08AE593E1D1CF49CE88232B
:1027700011F08A3119F486E593E1C9CF41CE873053
:1027800049F08A3161F0843079F461110DC085ED32
:1027900093E128CE611108C08EE193E104C061117C
:1027A00003C083E693E1B3CF2BCE882311F08A31A7
:1027B00019F480E593E1ABCF23CE863049F08A311E
:1027C00061F0843089F461110FC085EF93E10ACE86
:1027D00061110AC08CE693E104C0611105C086E670
:1027E00093E195DF81E003CE0BCE8A3139F461119C
:1027F00005C089E693E18BDF81E0F9CD01CE8093BE
:102800007B0260937A0284E992E181CFCF93C62F55
:1028100090E0FC013497EF36F10508F04CC1EA5A1C
:10282000FF4F57C1611147C181E003C0611143C12E
:1028300082E0CF91E7CD61113EC183E0FACF6230F3
:1028400029F0603219F0662321F035C181EB92E165
:102850000CC184E0EECF61112EC185E0EACF623079
:1028600029F0603219F0662321F025C185E393E158
:10287000FCC086E0DECF61111EC187E0DACF6111B6
:102880001AC188E0D6CF611116C189E0D2CF61119B
:1028900012C1C8DD882311F080E0CBCF87EB92E135
:1028A000E4C0623029F0603219F0662321F003C1E0
:1028B0008AE293E17CC080E393E179C0613021F04A
:1028C00038F0603109F0F7C0F3DC88E193E1CDC066
:1028D000EFDC85E793E1C9C06111EDC08DED93E1B7
:1028E000D7C06111E8C08FEB93E1D2C06111E3C0A2
:1028F0008AE493E1BAC0613021F038F0603109F028
:10290000DAC0D6DC84E293E1B0C08DEB92E1FFDE69
:1029100084E04FC06111CFC0CBDC60E080E52CC00B
:10292000623031F0603221F0662309F441C0C3C047
:1029300081E493E13CC0613021F038F0603109F06E
:10294000BAC0B6DC81E693E190C0B2DC60E081E51C
:1029500013C0613021F038F0603109F0ACC0A8DC60
:1029600082E693E182C0A4DC60E082E505C06111EB
:10297000A2C09EDC60E08FE4CF9141CF623029F0AD
:10298000603219F0662321F096C08DE093E16DC0AE
:1029900082E193E16AC0623029F0603219F0662367
:1029A00021F089C086E393E102C082E093E1AFDECB
:1029B00081E0CF911CCD623029F0603219F066239E
:1029C00021F079C084ED92E150C08BEE92E14DC0D0
:1029D000611171C08EEC92E19ADE82E008DD0DC0DB
:1029E000623029F0603219F0662339F064C08CE659
:1029F00093E18DDE81E0FBDC06C089EC92E187DEAD
:102A000081E0F5DC02C0C11156C083EC92E17FDEAB
:102A10000AC0623029F0603219F0662321F04BC001
:102A200086E0E5DC03C085E0E2DC02C0C11143C002
:102A300083E493E11AC0623029F0603219F0662312
:102A400031F039C035DC60E08AE2D9DE05C030DC27
:102A500060E08CE4D4DE0BC0C83029F0C03819F037
:102A6000CC2329F028C082E493E1CF9150CE81EAB3
:102A700093E10EC061111FC08DEB92E148DE83E04F
:102A8000B6DC19C0623011F06032A9F487E793E137
:102A9000CF91A8CC61110FC08FE992E138DE83E0BD
:102AA000A6DC02C0611107C089E992E130DE83E053
:102AB0009EDCCF91F9CBCF91A3CCE0917102F09144
:102AC0007202099486E094E19093720280937102FD
:102AD0000895EE0FFF1F0590F491E02D0994F894EE
:022AE000FFCF26
:102AE20001000000000000000000000000000000E3
:0A2AF20000000000220176017D01C2
:00000001FF
